{
  "_format": "hh-sol-artifact-1",
  "contractName": "BuyReceiver",
  "sourceName": "contracts/CRE/BuyReceiver.sol",
  "abi": [
    {
      "inputs": [
        {
          "internalType": "address",
          "name": "token_",
          "type": "address"
        }
      ],
      "stateMutability": "nonpayable",
      "type": "constructor"
    },
    {
      "inputs": [],
      "name": "token",
      "outputs": [
        {
          "internalType": "contract IToken",
          "name": "",
          "type": "address"
        }
      ],
      "stateMutability": "view",
      "type": "function"
    },
    {
      "inputs": [],
      "name": "trigger",
      "outputs": [],
      "stateMutability": "nonpayable",
      "type": "function"
    },
    {
      "inputs": [],
      "name": "withdraw",
      "outputs": [],
      "stateMutability": "nonpayable",
      "type": "function"
    },
    {
      "inputs": [
        {
          "internalType": "contract IERC20",
          "name": "token_",
          "type": "address"
        }
      ],
      "name": "withdrawToken",
      "outputs": [],
      "stateMutability": "nonpayable",
      "type": "function"
    },
    {
      "stateMutability": "payable",
      "type": "receive"
    }
  ],
  "bytecode": "0x60a060405234801561001057600080fd5b506040516106a53803806106a583398101604081905261002f91610040565b6001600160a01b0316608052610070565b60006020828403121561005257600080fd5b81516001600160a01b038116811461006957600080fd5b9392505050565b6080516105f96100ac6000396000818160ad0152818160ed0152818161022f015281816102c501528181610341015261041001526105f96000f3fe6080604052600436106100435760003560e01c80633ccfd60b1461004f5780637fec8d3814610066578063894760691461007b578063fc0c546a1461009b57600080fd5b3661004a57005b600080fd5b34801561005b57600080fd5b506100646100eb565b005b34801561007257600080fd5b50610064610217565b34801561008757600080fd5b50610064610096366004610547565b61033f565b3480156100a757600080fd5b506100cf7f000000000000000000000000000000000000000000000000000000000000000081565b6040516001600160a01b03909116815260200160405180910390f35b7f00000000000000000000000000000000000000000000000000000000000000006001600160a01b031663893d20e86040518163ffffffff1660e01b8152600401602060405180830381865afa158015610149573d6000803e3d6000fd5b505050506040513d601f19601f8201168201806040525081019061016d919061056b565b6001600160a01b0316336001600160a01b0316146101bf5760405162461bcd60e51b815260206004820152600a60248201526927b7363c9027bbb732b960b11b60448201526064015b60405180910390fd5b604051600090339047908381818185875af1925050503d8060008114610201576040519150601f19603f3d011682016040523d82523d6000602084013e610206565b606091505b505090508061021457600080fd5b50565b6040516370a0823160e01b81523060048201526000907f00000000000000000000000000000000000000000000000000000000000000006001600160a01b0316906370a0823190602401602060405180830381865afa15801561027e573d6000803e3d6000fd5b505050506040513d601f19601f820116820180604052508101906102a29190610588565b9050806000036102af5750565b604051630852cd8d60e31b8152600481018290527f00000000000000000000000000000000000000000000000000000000000000006001600160a01b0316906342966c68906024015b6020604051808303816000875af1158015610317573d6000803e3d6000fd5b505050506040513d601f19601f8201168201806040525081019061033b91906105a1565b5050565b7f00000000000000000000000000000000000000000000000000000000000000006001600160a01b031663893d20e86040518163ffffffff1660e01b8152600401602060405180830381865afa15801561039d573d6000803e3d6000fd5b505050506040513d601f19601f820116820180604052508101906103c1919061056b565b6001600160a01b0316336001600160a01b03161461040e5760405162461bcd60e51b815260206004820152600a60248201526927b7363c9027bbb732b960b11b60448201526064016101b6565b7f00000000000000000000000000000000000000000000000000000000000000006001600160a01b0316816001600160a01b03160361048f5760405162461bcd60e51b815260206004820152601a60248201527f43616e6e6f742057697468647261772043524520546f6b656e7300000000000060448201526064016101b6565b6040516370a0823160e01b81523060048201526001600160a01b0382169063a9059cbb90339083906370a0823190602401602060405180830381865afa1580156104dd573d6000803e3d6000fd5b505050506040513d601f19601f820116820180604052508101906105019190610588565b6040516001600160e01b031960e085901b1681526001600160a01b03909216600483015260248201526044016102f8565b6001600160a01b038116811461021457600080fd5b60006020828403121561055957600080fd5b813561056481610532565b9392505050565b60006020828403121561057d57600080fd5b815161056481610532565b60006020828403121561059a57600080fd5b5051919050565b6000602082840312156105b357600080fd5b8151801515811461056457600080fdfea2646970667358221220c6f8bb7b22e087a10a192853ec2381fb399056c0f43f62ac101c3d351a7d8a7364736f6c634300080e0033",
  "linkReferences": {},
  "deployedLinkReferences": {}
}