{
  "_format": "hh-sol-artifact-1",
  "contractName": "BUSDSwapper",
  "sourceName": "contracts/HelperContracts/BUSDSwapper.sol",
  "abi": [
    {
      "inputs": [
        {
          "internalType": "address",
          "name": "token_",
          "type": "address"
        },
        {
          "internalType": "address",
          "name": "router_",
          "type": "address"
        }
      ],
      "stateMutability": "nonpayable",
      "type": "constructor"
    },
    {
      "inputs": [
        {
          "internalType": "address",
          "name": "user",
          "type": "address"
        }
      ],
      "name": "buy",
      "outputs": [],
      "stateMutability": "payable",
      "type": "function"
    },
    {
      "inputs": [],
      "name": "router",
      "outputs": [
        {
          "internalType": "contract IUniswapV2Router02",
          "name": "",
          "type": "address"
        }
      ],
      "stateMutability": "view",
      "type": "function"
    },
    {
      "stateMutability": "payable",
      "type": "receive"
    }
  ],
  "bytecode": "0x608060405234801561001057600080fd5b5060405161060638038061060683398101604081905261002f91610321565b600080546001600160a01b0319166001600160a01b03831617905560408051600280825260608201835290916020830190803683375050815161007992600192506020019061028b565b5060008054906101000a90046001600160a01b03166001600160a01b031663ad5c46486040518163ffffffff1660e01b8152600401602060405180830381865afa1580156100cb573d6000803e3d6000fd5b505050506040513d601f19601f820116820180604052508101906100ef9190610354565b600160008154811061010357610103610376565b9060005260206000200160006101000a8154816001600160a01b0302191690836001600160a01b03160217905550816001808154811061014557610145610376565b600091825260209091200180546001600160a01b03929092166001600160a01b03199092169190911790556040805160028082526060820190925290816020016020820280368337505081516101a292600292506020019061028b565b508160026000815481106101b8576101b8610376565b600091825260208083209190910180546001600160a01b0319166001600160a01b039485161790559054604080516315ab88c960e31b81529051919093169263ad5c46489260048083019391928290030181865afa15801561021e573d6000803e3d6000fd5b505050506040513d601f19601f820116820180604052508101906102429190610354565b600260018154811061025657610256610376565b9060005260206000200160006101000a8154816001600160a01b0302191690836001600160a01b03160217905550505061038c565b8280548282559060005260206000209081019282156102e0579160200282015b828111156102e057825182546001600160a01b0319166001600160a01b039091161782556020909201916001909101906102ab565b506102ec9291506102f0565b5090565b5b808211156102ec57600081556001016102f1565b80516001600160a01b038116811461031c57600080fd5b919050565b6000806040838503121561033457600080fd5b61033d83610305565b915061034b60208401610305565b90509250929050565b60006020828403121561036657600080fd5b61036f82610305565b9392505050565b634e487b7160e01b600052603260045260246000fd5b61026b8061039b6000396000f3fe60806040526004361061002d5760003560e01c8063f088d547146100a9578063f887ea40146100bc57600080fd5b366100a457600080546001600160a01b03169063b6f9de9590479060013361005642600a610170565b6040518663ffffffff1660e01b81526004016100759493929190610196565b6000604051808303818588803b15801561008e57600080fd5b505af11580156100a2573d6000803e3d6000fd5b005b600080fd5b6100a26100b7366004610205565b6100f8565b3480156100c857600080fd5b506000546100dc906001600160a01b031681565b6040516001600160a01b03909116815260200160405180910390f35b600080546001600160a01b03169063b6f9de9590479060018561011c42600a610170565b6040518663ffffffff1660e01b815260040161013b9493929190610196565b6000604051808303818588803b15801561015457600080fd5b505af1158015610168573d6000803e3d6000fd5b505050505050565b6000821982111561019157634e487b7160e01b600052601160045260246000fd5b500190565b600060808201868352602060808185015281875480845260a0860191508860005282600020935060005b818110156101e55784546001600160a01b0316835260019485019492840192016101c0565b50506001600160a01b039690961660408501525050506060015292915050565b60006020828403121561021757600080fd5b81356001600160a01b038116811461022e57600080fd5b939250505056fea264697066735822122032c2a16ed1deec94e64a1066fc9f5462354f0b9a5f7062a78b9c77e397e4d2db64736f6c634300080e0033",
  "linkReferences": {},
  "deployedLinkReferences": {}
}