{
  "_format": "hh-sol-artifact-1",
  "contractName": "TokenSwapper",
  "sourceName": "contracts/CRE/tokenSwapper.sol",
  "abi": [
    {
      "inputs": [
        {
          "internalType": "address",
          "name": "token_",
          "type": "address"
        },
        {
          "internalType": "address",
          "name": "router_",
          "type": "address"
        }
      ],
      "stateMutability": "nonpayable",
      "type": "constructor"
    },
    {
      "inputs": [
        {
          "internalType": "address",
          "name": "user",
          "type": "address"
        }
      ],
      "name": "buy",
      "outputs": [],
      "stateMutability": "payable",
      "type": "function"
    },
    {
      "inputs": [],
      "name": "router",
      "outputs": [
        {
          "internalType": "contract IUniswapV2Router02",
          "name": "",
          "type": "address"
        }
      ],
      "stateMutability": "view",
      "type": "function"
    },
    {
      "inputs": [
        {
          "internalType": "address",
          "name": "user",
          "type": "address"
        }
      ],
      "name": "sell",
      "outputs": [],
      "stateMutability": "nonpayable",
      "type": "function"
    },
    {
      "inputs": [],
      "name": "token",
      "outputs": [
        {
          "internalType": "address",
          "name": "",
          "type": "address"
        }
      ],
      "stateMutability": "view",
      "type": "function"
    }
  ],
  "bytecode": "0x60a060405234801561001057600080fd5b5060405161095c38038061095c83398101604081905261002f91610388565b6001600160a01b0382161580159061004f57506001600160a01b03811615155b61008c5760405162461bcd60e51b815260206004820152600a6024820152695a65726f20436865636b60b01b604482015260640160405180910390fd5b6001600160a01b03828116608052600080546001600160a01b0319169183169190911790556040805160028082526060820183529091602083019080368337505081516100e09260019250602001906102f2565b5060008054906101000a90046001600160a01b03166001600160a01b031663ad5c46486040518163ffffffff1660e01b8152600401602060405180830381865afa158015610132573d6000803e3d6000fd5b505050506040513d601f19601f8201168201806040525081019061015691906103bb565b600160008154811061016a5761016a6103dd565b9060005260206000200160006101000a8154816001600160a01b0302191690836001600160a01b0316021790555081600180815481106101ac576101ac6103dd565b600091825260209091200180546001600160a01b03929092166001600160a01b03199092169190911790556040805160028082526060820190925290816020016020820280368337505081516102099260029250602001906102f2565b5081600260008154811061021f5761021f6103dd565b600091825260208083209190910180546001600160a01b0319166001600160a01b039485161790559054604080516315ab88c960e31b81529051919093169263ad5c46489260048083019391928290030181865afa158015610285573d6000803e3d6000fd5b505050506040513d601f19601f820116820180604052508101906102a991906103bb565b60026001815481106102bd576102bd6103dd565b9060005260206000200160006101000a8154816001600160a01b0302191690836001600160a01b0316021790555050506103f3565b828054828255906000526020600020908101928215610347579160200282015b8281111561034757825182546001600160a01b0319166001600160a01b03909116178255602090920191600190910190610312565b50610353929150610357565b5090565b5b808211156103535760008155600101610358565b80516001600160a01b038116811461038357600080fd5b919050565b6000806040838503121561039b57600080fd5b6103a48361036c565b91506103b26020840161036c565b90509250929050565b6000602082840312156103cd57600080fd5b6103d68261036c565b9392505050565b634e487b7160e01b600052603260045260246000fd5b6080516105346104286000396000818160c70152818160f40152818161016b0152818161020a01526102fd01526105346000f3fe60806040526004361061003f5760003560e01c806394b6f9d414610044578063f088d54714610066578063f887ea4014610079578063fc0c546a146100b5575b600080fd5b34801561005057600080fd5b5061006461005f3660046103b3565b6100e9565b005b6100646100743660046103b3565b6102f2565b34801561008557600080fd5b50600054610099906001600160a01b031681565b6040516001600160a01b03909116815260200160405180910390f35b3480156100c157600080fd5b506100997f000000000000000000000000000000000000000000000000000000000000000081565b336001600160a01b037f000000000000000000000000000000000000000000000000000000000000000016146101535760405162461bcd60e51b815260206004820152600a60248201526927b7363c902a37b5b2b760b11b60448201526064015b60405180910390fd5b6040516370a0823160e01b81523060048201526000907f00000000000000000000000000000000000000000000000000000000000000006001600160a01b0316906370a0823190602401602060405180830381865afa1580156101ba573d6000803e3d6000fd5b505050506040513d601f19601f820116820180604052508101906101de91906103e3565b60005460405163095ea7b360e01b81526001600160a01b039182166004820152602481018390529192507f0000000000000000000000000000000000000000000000000000000000000000169063095ea7b3906044016020604051808303816000875af1158015610253573d6000803e3d6000fd5b505050506040513d601f19601f8201168201806040525081019061027791906103fc565b50600080546001600160a01b03169063791ac94790839060028661029c42600a61041e565b6040518663ffffffff1660e01b81526004016102bc95949392919061048d565b600060405180830381600087803b1580156102d657600080fd5b505af11580156102ea573d6000803e3d6000fd5b505050505050565b336001600160a01b037f000000000000000000000000000000000000000000000000000000000000000016146103575760405162461bcd60e51b815260206004820152600a60248201526927b7363c902a37b5b2b760b11b604482015260640161014a565b600080546001600160a01b03169063b6f9de9590479060018561037b42600a61041e565b6040518663ffffffff1660e01b815260040161039a94939291906104c9565b6000604051808303818588803b1580156102d657600080fd5b6000602082840312156103c557600080fd5b81356001600160a01b03811681146103dc57600080fd5b9392505050565b6000602082840312156103f557600080fd5b5051919050565b60006020828403121561040e57600080fd5b815180151581146103dc57600080fd5b6000821982111561043f57634e487b7160e01b600052601160045260246000fd5b500190565b6000815480845260208085019450836000528060002060005b838110156104825781546001600160a01b03168752958201956001918201910161045d565b509495945050505050565b85815284602082015260a0604082015260006104ac60a0830186610444565b6001600160a01b0394909416606083015250608001529392505050565b8481526080602082015260006104e26080830186610444565b6001600160a01b0394909416604083015250606001529291505056fea2646970667358221220233792d29ff7016a9c76c10bd9c1bcae1614a2e82aab6226dc0f4ae3c3ae226864736f6c634300080e0033",
  "linkReferences": {},
  "deployedLinkReferences": {}
}