{
  "_format": "hh-sol-artifact-1",
  "contractName": "SellReceiver",
  "sourceName": "contracts/CRE/SellReceiver.sol",
  "abi": [
    {
      "inputs": [
        {
          "internalType": "address",
          "name": "token_",
          "type": "address"
        },
        {
          "internalType": "address",
          "name": "treasury_",
          "type": "address"
        }
      ],
      "stateMutability": "nonpayable",
      "type": "constructor"
    },
    {
      "inputs": [],
      "name": "burnCut",
      "outputs": [
        {
          "internalType": "uint256",
          "name": "",
          "type": "uint256"
        }
      ],
      "stateMutability": "view",
      "type": "function"
    },
    {
      "inputs": [
        {
          "internalType": "uint256",
          "name": "treasury_",
          "type": "uint256"
        },
        {
          "internalType": "uint256",
          "name": "burn_",
          "type": "uint256"
        }
      ],
      "name": "setAllocations",
      "outputs": [],
      "stateMutability": "nonpayable",
      "type": "function"
    },
    {
      "inputs": [
        {
          "internalType": "address",
          "name": "treasury_",
          "type": "address"
        }
      ],
      "name": "setTreasury",
      "outputs": [],
      "stateMutability": "nonpayable",
      "type": "function"
    },
    {
      "inputs": [],
      "name": "token",
      "outputs": [
        {
          "internalType": "contract IToken",
          "name": "",
          "type": "address"
        }
      ],
      "stateMutability": "view",
      "type": "function"
    },
    {
      "inputs": [],
      "name": "treasury",
      "outputs": [
        {
          "internalType": "address",
          "name": "",
          "type": "address"
        }
      ],
      "stateMutability": "view",
      "type": "function"
    },
    {
      "inputs": [],
      "name": "treasuryCut",
      "outputs": [
        {
          "internalType": "uint256",
          "name": "",
          "type": "uint256"
        }
      ],
      "stateMutability": "view",
      "type": "function"
    },
    {
      "inputs": [],
      "name": "trigger",
      "outputs": [],
      "stateMutability": "nonpayable",
      "type": "function"
    },
    {
      "inputs": [],
      "name": "withdraw",
      "outputs": [],
      "stateMutability": "nonpayable",
      "type": "function"
    },
    {
      "inputs": [
        {
          "internalType": "contract IERC20",
          "name": "token_",
          "type": "address"
        }
      ],
      "name": "withdrawToken",
      "outputs": [],
      "stateMutability": "nonpayable",
      "type": "function"
    },
    {
      "stateMutability": "payable",
      "type": "receive"
    }
  ],
  "bytecode": "0x60a06040526006600155600460025534801561001a57600080fd5b50604051610cc1380380610cc1833981016040819052610039916100da565b6001600160a01b0382161580159061005957506001600160a01b03811615155b6100965760405162461bcd60e51b815260206004820152600a6024820152695a65726f20436865636b60b01b604482015260640160405180910390fd5b6001600160a01b03918216608052600080546001600160a01b0319169190921617905561010d565b80516001600160a01b03811681146100d557600080fd5b919050565b600080604083850312156100ed57600080fd5b6100f6836100be565b9150610104602084016100be565b90509250929050565b608051610b61610160600039600081816101ab015281816101cf015281816102e2015281816103fd015281816104c401528181610553015281816105e401528181610678015261080f0152610b616000f3fe60806040526004361061008a5760003560e01c80637fec8d38116100595780637fec8d381461012e5780638947606914610143578063cf0061b014610163578063f0f4426014610179578063fc0c546a1461019957600080fd5b80633ccfd60b1461009657806361d027b3146100ad57806362b04329146100ea578063746922d61461010a57600080fd5b3661009157005b600080fd5b3480156100a257600080fd5b506100ab6101cd565b005b3480156100b957600080fd5b506000546100cd906001600160a01b031681565b6040516001600160a01b0390911681526020015b60405180910390f35b3480156100f657600080fd5b506100ab6101053660046109e5565b6102e0565b34801561011657600080fd5b5061012060015481565b6040519081526020016100e1565b34801561013a57600080fd5b506100ab6103e5565b34801561014f57600080fd5b506100ab61015e366004610a1c565b610676565b34801561016f57600080fd5b5061012060025481565b34801561018557600080fd5b506100ab610194366004610a1c565b61080d565b3480156101a557600080fd5b506100cd7f000000000000000000000000000000000000000000000000000000000000000081565b7f00000000000000000000000000000000000000000000000000000000000000006001600160a01b031663893d20e86040518163ffffffff1660e01b8152600401602060405180830381865afa15801561022b573d6000803e3d6000fd5b505050506040513d601f19601f8201168201806040525081019061024f9190610a40565b6001600160a01b0316336001600160a01b0316146102885760405162461bcd60e51b815260040161027f90610a5d565b60405180910390fd5b604051600090339047908381818185875af1925050503d80600081146102ca576040519150601f19603f3d011682016040523d82523d6000602084013e6102cf565b606091505b50509050806102dd57600080fd5b50565b7f00000000000000000000000000000000000000000000000000000000000000006001600160a01b031663893d20e86040518163ffffffff1660e01b8152600401602060405180830381865afa15801561033e573d6000803e3d6000fd5b505050506040513d601f19601f820116820180604052508101906103629190610a40565b6001600160a01b0316336001600160a01b0316146103925760405162461bcd60e51b815260040161027f90610a5d565b60008211806103a15750600081115b6103da5760405162461bcd60e51b815260206004820152600a6024820152695a65726f20436865636b60b01b604482015260640161027f565b600191909155600255565b6040516370a0823160e01b81523060048201526000907f00000000000000000000000000000000000000000000000000000000000000006001600160a01b0316906370a0823190602401602060405180830381865afa15801561044c573d6000803e3d6000fd5b505050506040513d601f19601f820116820180604052508101906104709190610a81565b90508060000361047d5750565b600060025460015461048f9190610ab0565b60025461049c9084610ac8565b6104a69190610ae7565b9050801561053b57604051630852cd8d60e31b8152600481018290527f00000000000000000000000000000000000000000000000000000000000000006001600160a01b0316906342966c68906024016020604051808303816000875af1158015610515573d6000803e3d6000fd5b505050506040513d601f19601f820116820180604052508101906105399190610b09565b505b6040516370a0823160e01b81523060048201526000907f00000000000000000000000000000000000000000000000000000000000000006001600160a01b0316906370a0823190602401602060405180830381865afa1580156105a2573d6000803e3d6000fd5b505050506040513d601f19601f820116820180604052508101906105c69190610a81565b9050801561065b576040516372424d9960e11b8152600481018290527f00000000000000000000000000000000000000000000000000000000000000006001600160a01b03169063e4849b32906024016020604051808303816000875af1158015610635573d6000803e3d6000fd5b505050506040513d601f19601f820116820180604052508101906106599190610b09565b505b600054610671906001600160a01b031647610924565b505050565b7f00000000000000000000000000000000000000000000000000000000000000006001600160a01b031663893d20e86040518163ffffffff1660e01b8152600401602060405180830381865afa1580156106d4573d6000803e3d6000fd5b505050506040513d601f19601f820116820180604052508101906106f89190610a40565b6001600160a01b0316336001600160a01b0316146107285760405162461bcd60e51b815260040161027f90610a5d565b6040516370a0823160e01b81523060048201526001600160a01b0382169063a9059cbb90339083906370a0823190602401602060405180830381865afa158015610776573d6000803e3d6000fd5b505050506040513d601f19601f8201168201806040525081019061079a9190610a81565b6040516001600160e01b031960e085901b1681526001600160a01b03909216600483015260248201526044016020604051808303816000875af11580156107e5573d6000803e3d6000fd5b505050506040513d601f19601f820116820180604052508101906108099190610b09565b5050565b7f00000000000000000000000000000000000000000000000000000000000000006001600160a01b031663893d20e86040518163ffffffff1660e01b8152600401602060405180830381865afa15801561086b573d6000803e3d6000fd5b505050506040513d601f19601f8201168201806040525081019061088f9190610a40565b6001600160a01b0316336001600160a01b0316146108bf5760405162461bcd60e51b815260040161027f90610a5d565b6001600160a01b0381166109025760405162461bcd60e51b815260206004820152600a6024820152695a65726f20436865636b60b01b604482015260640161027f565b600080546001600160a01b0319166001600160a01b0392909216919091179055565b6001600160a01b038216610936575050565b478111156109415750475b8060000361094d575050565b6000826001600160a01b03168260405160006040518083038185875af1925050503d806000811461099a576040519150601f19603f3d011682016040523d82523d6000602084013e61099f565b606091505b50509050806106715760405162461bcd60e51b815260206004820152601260248201527108c829298aaa48a409e9c40a68a9c888aa8960731b604482015260640161027f565b600080604083850312156109f857600080fd5b50508035926020909101359150565b6001600160a01b03811681146102dd57600080fd5b600060208284031215610a2e57600080fd5b8135610a3981610a07565b9392505050565b600060208284031215610a5257600080fd5b8151610a3981610a07565b6020808252600a908201526927b7363c9027bbb732b960b11b604082015260600190565b600060208284031215610a9357600080fd5b5051919050565b634e487b7160e01b600052601160045260246000fd5b60008219821115610ac357610ac3610a9a565b500190565b6000816000190483118215151615610ae257610ae2610a9a565b500290565b600082610b0457634e487b7160e01b600052601260045260246000fd5b500490565b600060208284031215610b1b57600080fd5b81518015158114610a3957600080fdfea264697066735822122076da8514f10ecbd0aa5cb47070e53783bfc40b76741a5225fe96b674594ac28964736f6c634300080e0033",
  "linkReferences": {},
  "deployedLinkReferences": {}
}