{
  "_format": "hh-sol-artifact-1",
  "contractName": "CryptoRealEstate",
  "sourceName": "contracts/CRE/CRE.sol",
  "abi": [
    {
      "inputs": [],
      "stateMutability": "nonpayable",
      "type": "constructor"
    },
    {
      "anonymous": false,
      "inputs": [
        {
          "indexed": true,
          "internalType": "address",
          "name": "owner",
          "type": "address"
        },
        {
          "indexed": true,
          "internalType": "address",
          "name": "spender",
          "type": "address"
        },
        {
          "indexed": false,
          "internalType": "uint256",
          "name": "value",
          "type": "uint256"
        }
      ],
      "name": "Approval",
      "type": "event"
    },
    {
      "anonymous": false,
      "inputs": [
        {
          "indexed": true,
          "internalType": "address",
          "name": "oldOwner",
          "type": "address"
        },
        {
          "indexed": true,
          "internalType": "address",
          "name": "newOwner",
          "type": "address"
        }
      ],
      "name": "OwnerSet",
      "type": "event"
    },
    {
      "anonymous": false,
      "inputs": [
        {
          "indexed": false,
          "internalType": "bool",
          "name": "triggerBuy",
          "type": "bool"
        },
        {
          "indexed": false,
          "internalType": "bool",
          "name": "triggerSell",
          "type": "bool"
        },
        {
          "indexed": false,
          "internalType": "bool",
          "name": "triggerTransfer",
          "type": "bool"
        }
      ],
      "name": "SetAutoTriggers",
      "type": "event"
    },
    {
      "anonymous": false,
      "inputs": [
        {
          "indexed": false,
          "internalType": "address",
          "name": "account",
          "type": "address"
        },
        {
          "indexed": false,
          "internalType": "bool",
          "name": "isMarketMaker",
          "type": "bool"
        }
      ],
      "name": "SetAutomatedMarketMaker",
      "type": "event"
    },
    {
      "anonymous": false,
      "inputs": [
        {
          "indexed": false,
          "internalType": "address",
          "name": "recipient",
          "type": "address"
        }
      ],
      "name": "SetBuyFeeRecipient",
      "type": "event"
    },
    {
      "anonymous": false,
      "inputs": [
        {
          "indexed": false,
          "internalType": "address",
          "name": "account",
          "type": "address"
        },
        {
          "indexed": false,
          "internalType": "bool",
          "name": "isFeeExempt",
          "type": "bool"
        }
      ],
      "name": "SetFeeExemption",
      "type": "event"
    },
    {
      "anonymous": false,
      "inputs": [
        {
          "indexed": false,
          "internalType": "uint256",
          "name": "buyFee",
          "type": "uint256"
        },
        {
          "indexed": false,
          "internalType": "uint256",
          "name": "sellFee",
          "type": "uint256"
        },
        {
          "indexed": false,
          "internalType": "uint256",
          "name": "transferFee",
          "type": "uint256"
        }
      ],
      "name": "SetFees",
      "type": "event"
    },
    {
      "anonymous": false,
      "inputs": [
        {
          "indexed": false,
          "internalType": "address",
          "name": "recipient",
          "type": "address"
        }
      ],
      "name": "SetSellFeeRecipient",
      "type": "event"
    },
    {
      "anonymous": false,
      "inputs": [
        {
          "indexed": false,
          "internalType": "address",
          "name": "newSwapper",
          "type": "address"
        }
      ],
      "name": "SetTokenSwapper",
      "type": "event"
    },
    {
      "anonymous": false,
      "inputs": [
        {
          "indexed": false,
          "internalType": "address",
          "name": "recipient",
          "type": "address"
        }
      ],
      "name": "SetTransferFeeRecipient",
      "type": "event"
    },
    {
      "anonymous": false,
      "inputs": [
        {
          "indexed": true,
          "internalType": "address",
          "name": "from",
          "type": "address"
        },
        {
          "indexed": true,
          "internalType": "address",
          "name": "to",
          "type": "address"
        },
        {
          "indexed": false,
          "internalType": "uint256",
          "name": "value",
          "type": "uint256"
        }
      ],
      "name": "Transfer",
      "type": "event"
    },
    {
      "inputs": [],
      "name": "TAX_DENOM",
      "outputs": [
        {
          "internalType": "uint256",
          "name": "",
          "type": "uint256"
        }
      ],
      "stateMutability": "view",
      "type": "function"
    },
    {
      "inputs": [
        {
          "internalType": "address",
          "name": "holder",
          "type": "address"
        },
        {
          "internalType": "address",
          "name": "spender",
          "type": "address"
        }
      ],
      "name": "allowance",
      "outputs": [
        {
          "internalType": "uint256",
          "name": "",
          "type": "uint256"
        }
      ],
      "stateMutability": "view",
      "type": "function"
    },
    {
      "inputs": [
        {
          "internalType": "address",
          "name": "spender",
          "type": "address"
        },
        {
          "internalType": "uint256",
          "name": "amount",
          "type": "uint256"
        }
      ],
      "name": "approve",
      "outputs": [
        {
          "internalType": "bool",
          "name": "",
          "type": "bool"
        }
      ],
      "stateMutability": "nonpayable",
      "type": "function"
    },
    {
      "inputs": [
        {
          "internalType": "address",
          "name": "account",
          "type": "address"
        }
      ],
      "name": "balanceOf",
      "outputs": [
        {
          "internalType": "uint256",
          "name": "",
          "type": "uint256"
        }
      ],
      "stateMutability": "view",
      "type": "function"
    },
    {
      "inputs": [
        {
          "internalType": "uint256",
          "name": "amount",
          "type": "uint256"
        }
      ],
      "name": "burn",
      "outputs": [
        {
          "internalType": "bool",
          "name": "",
          "type": "bool"
        }
      ],
      "stateMutability": "nonpayable",
      "type": "function"
    },
    {
      "inputs": [
        {
          "internalType": "address",
          "name": "account",
          "type": "address"
        },
        {
          "internalType": "uint256",
          "name": "amount",
          "type": "uint256"
        }
      ],
      "name": "burnFrom",
      "outputs": [
        {
          "internalType": "bool",
          "name": "",
          "type": "bool"
        }
      ],
      "stateMutability": "nonpayable",
      "type": "function"
    },
    {
      "inputs": [
        {
          "internalType": "address",
          "name": "recipient",
          "type": "address"
        }
      ],
      "name": "buy",
      "outputs": [],
      "stateMutability": "payable",
      "type": "function"
    },
    {
      "inputs": [],
      "name": "buyFee",
      "outputs": [
        {
          "internalType": "uint256",
          "name": "",
          "type": "uint256"
        }
      ],
      "stateMutability": "view",
      "type": "function"
    },
    {
      "inputs": [],
      "name": "buyFeeRecipient",
      "outputs": [
        {
          "internalType": "address",
          "name": "",
          "type": "address"
        }
      ],
      "stateMutability": "view",
      "type": "function"
    },
    {
      "inputs": [
        {
          "internalType": "address",
          "name": "newOwner",
          "type": "address"
        }
      ],
      "name": "changeOwner",
      "outputs": [],
      "stateMutability": "nonpayable",
      "type": "function"
    },
    {
      "inputs": [],
      "name": "decimals",
      "outputs": [
        {
          "internalType": "uint8",
          "name": "",
          "type": "uint8"
        }
      ],
      "stateMutability": "pure",
      "type": "function"
    },
    {
      "inputs": [],
      "name": "getOwner",
      "outputs": [
        {
          "internalType": "address",
          "name": "",
          "type": "address"
        }
      ],
      "stateMutability": "view",
      "type": "function"
    },
    {
      "inputs": [
        {
          "internalType": "address",
          "name": "sender",
          "type": "address"
        },
        {
          "internalType": "address",
          "name": "recipient",
          "type": "address"
        },
        {
          "internalType": "uint256",
          "name": "amount",
          "type": "uint256"
        }
      ],
      "name": "getTax",
      "outputs": [
        {
          "internalType": "uint256",
          "name": "",
          "type": "uint256"
        },
        {
          "internalType": "address",
          "name": "",
          "type": "address"
        },
        {
          "internalType": "bool",
          "name": "",
          "type": "bool"
        }
      ],
      "stateMutability": "view",
      "type": "function"
    },
    {
      "inputs": [],
      "name": "name",
      "outputs": [
        {
          "internalType": "string",
          "name": "",
          "type": "string"
        }
      ],
      "stateMutability": "pure",
      "type": "function"
    },
    {
      "inputs": [
        {
          "internalType": "address",
          "name": "",
          "type": "address"
        }
      ],
      "name": "permissions",
      "outputs": [
        {
          "internalType": "bool",
          "name": "isFeeExempt",
          "type": "bool"
        },
        {
          "internalType": "bool",
          "name": "isLiquidityPool",
          "type": "bool"
        }
      ],
      "stateMutability": "view",
      "type": "function"
    },
    {
      "inputs": [
        {
          "internalType": "address",
          "name": "account",
          "type": "address"
        }
      ],
      "name": "registerAutomatedMarketMaker",
      "outputs": [],
      "stateMutability": "nonpayable",
      "type": "function"
    },
    {
      "inputs": [
        {
          "internalType": "uint256",
          "name": "amount",
          "type": "uint256"
        }
      ],
      "name": "sell",
      "outputs": [
        {
          "internalType": "bool",
          "name": "",
          "type": "bool"
        }
      ],
      "stateMutability": "nonpayable",
      "type": "function"
    },
    {
      "inputs": [],
      "name": "sellFee",
      "outputs": [
        {
          "internalType": "uint256",
          "name": "",
          "type": "uint256"
        }
      ],
      "stateMutability": "view",
      "type": "function"
    },
    {
      "inputs": [],
      "name": "sellFeeRecipient",
      "outputs": [
        {
          "internalType": "address",
          "name": "",
          "type": "address"
        }
      ],
      "stateMutability": "view",
      "type": "function"
    },
    {
      "inputs": [
        {
          "internalType": "bool",
          "name": "autoBuyTrigger",
          "type": "bool"
        },
        {
          "internalType": "bool",
          "name": "autoTransferTrigger",
          "type": "bool"
        },
        {
          "internalType": "bool",
          "name": "autoSellTrigger",
          "type": "bool"
        }
      ],
      "name": "setAutoTriggers",
      "outputs": [],
      "stateMutability": "nonpayable",
      "type": "function"
    },
    {
      "inputs": [
        {
          "internalType": "address",
          "name": "recipient",
          "type": "address"
        }
      ],
      "name": "setBuyFeeRecipient",
      "outputs": [],
      "stateMutability": "nonpayable",
      "type": "function"
    },
    {
      "inputs": [
        {
          "internalType": "address",
          "name": "account",
          "type": "address"
        },
        {
          "internalType": "bool",
          "name": "isExempt",
          "type": "bool"
        }
      ],
      "name": "setFeeExempt",
      "outputs": [],
      "stateMutability": "nonpayable",
      "type": "function"
    },
    {
      "inputs": [
        {
          "internalType": "uint256",
          "name": "_buyFee",
          "type": "uint256"
        },
        {
          "internalType": "uint256",
          "name": "_sellFee",
          "type": "uint256"
        },
        {
          "internalType": "uint256",
          "name": "_transferFee",
          "type": "uint256"
        }
      ],
      "name": "setFees",
      "outputs": [],
      "stateMutability": "nonpayable",
      "type": "function"
    },
    {
      "inputs": [
        {
          "internalType": "address",
          "name": "recipient",
          "type": "address"
        }
      ],
      "name": "setSellFeeRecipient",
      "outputs": [],
      "stateMutability": "nonpayable",
      "type": "function"
    },
    {
      "inputs": [
        {
          "internalType": "address",
          "name": "newSwapper",
          "type": "address"
        }
      ],
      "name": "setTokenSwapper",
      "outputs": [],
      "stateMutability": "nonpayable",
      "type": "function"
    },
    {
      "inputs": [
        {
          "internalType": "address",
          "name": "recipient",
          "type": "address"
        }
      ],
      "name": "setTransferFeeRecipient",
      "outputs": [],
      "stateMutability": "nonpayable",
      "type": "function"
    },
    {
      "inputs": [],
      "name": "symbol",
      "outputs": [
        {
          "internalType": "string",
          "name": "",
          "type": "string"
        }
      ],
      "stateMutability": "pure",
      "type": "function"
    },
    {
      "inputs": [],
      "name": "tokenSwapper",
      "outputs": [
        {
          "internalType": "address",
          "name": "",
          "type": "address"
        }
      ],
      "stateMutability": "view",
      "type": "function"
    },
    {
      "inputs": [],
      "name": "totalSupply",
      "outputs": [
        {
          "internalType": "uint256",
          "name": "",
          "type": "uint256"
        }
      ],
      "stateMutability": "view",
      "type": "function"
    },
    {
      "inputs": [
        {
          "internalType": "address",
          "name": "recipient",
          "type": "address"
        },
        {
          "internalType": "uint256",
          "name": "amount",
          "type": "uint256"
        }
      ],
      "name": "transfer",
      "outputs": [
        {
          "internalType": "bool",
          "name": "",
          "type": "bool"
        }
      ],
      "stateMutability": "nonpayable",
      "type": "function"
    },
    {
      "inputs": [],
      "name": "transferFee",
      "outputs": [
        {
          "internalType": "uint256",
          "name": "",
          "type": "uint256"
        }
      ],
      "stateMutability": "view",
      "type": "function"
    },
    {
      "inputs": [],
      "name": "transferFeeRecipient",
      "outputs": [
        {
          "internalType": "address",
          "name": "",
          "type": "address"
        }
      ],
      "stateMutability": "view",
      "type": "function"
    },
    {
      "inputs": [
        {
          "internalType": "address",
          "name": "sender",
          "type": "address"
        },
        {
          "internalType": "address",
          "name": "recipient",
          "type": "address"
        },
        {
          "internalType": "uint256",
          "name": "amount",
          "type": "uint256"
        }
      ],
      "name": "transferFrom",
      "outputs": [
        {
          "internalType": "bool",
          "name": "",
          "type": "bool"
        }
      ],
      "stateMutability": "nonpayable",
      "type": "function"
    },
    {
      "inputs": [],
      "name": "triggerBuyRecipient",
      "outputs": [
        {
          "internalType": "bool",
          "name": "",
          "type": "bool"
        }
      ],
      "stateMutability": "view",
      "type": "function"
    },
    {
      "inputs": [],
      "name": "triggerSellRecipient",
      "outputs": [
        {
          "internalType": "bool",
          "name": "",
          "type": "bool"
        }
      ],
      "stateMutability": "view",
      "type": "function"
    },
    {
      "inputs": [],
      "name": "triggerTransferRecipient",
      "outputs": [
        {
          "internalType": "bool",
          "name": "",
          "type": "bool"
        }
      ],
      "stateMutability": "view",
      "type": "function"
    },
    {
      "inputs": [
        {
          "internalType": "address",
          "name": "account",
          "type": "address"
        }
      ],
      "name": "unRegisterAutomatedMarketMaker",
      "outputs": [],
      "stateMutability": "nonpayable",
      "type": "function"
    },
    {
      "inputs": [
        {
          "internalType": "address",
          "name": "token",
          "type": "address"
        }
      ],
      "name": "withdraw",
      "outputs": [],
      "stateMutability": "nonpayable",
      "type": "function"
    },
    {
      "inputs": [],
      "name": "withdrawBNB",
      "outputs": [],
      "stateMutability": "nonpayable",
      "type": "function"
    },
    {
      "stateMutability": "payable",
      "type": "receive"
    }
  ],
  "bytecode": "0x60806040526a52b7d2dcc80cd2e400000060015561012c6004819055610384600555600655600b805462ffffff60a01b191661010160a01b17905534801561004657600080fd5b50600080546001600160a01b0319163390811782556040519091907f342827c97908e5e2f71151c08502a66d44b6f758e3ac2f1de95f02eb95f0a735908290a3336000818152600760209081526040808320805460ff19166001908117909155546002835281842081905590519081527fddf252ad1be2c89b69c2b068fc378daa952ba7f163c4a11628f55a4df523b3ef910160405180910390a3611ef5806100f06000396000f3fe6080604052600436106102345760003560e01c806378c847981161012e578063acb2ad6f116100ab578063e4849b321161006f578063e4849b3214610799578063e87629f7146107b9578063f088d547146107da578063f145d6ff146107ed578063f89532a21461080e57600080fd5b8063acb2ad6f146106b8578063cec10c11146106ce578063d3c25899146106ee578063d7ad21ac1461070e578063dd62ed3e1461075357600080fd5b806395d89b41116100f257806395d89b411461060c5780639a44b9e314610638578063a6f9dae114610658578063a9059cbb14610678578063ac4dcb761461069857600080fd5b806378c847981461056e57806379cc67901461058e578063893d20e8146105ae5780638ebfc796146105cc57806392a39d91146105ec57600080fd5b8063313ce567116101bc578063498e7cc711610180578063498e7cc7146104b757806351cff8d9146104d857806365fe050e146104f857806367ffa8281461051857806370a082311461053857600080fd5b8063313ce567146104255780633eb193e21461044157806342966c68146104615780634706240214610481578063491dd70a1461049757600080fd5b80631d111d13116102035780631d111d131461038257806323b872dd146103975780632ac7b824146103b75780632b14ca56146103d7578063304561bb146103ed57600080fd5b806301e882081461029a57806306fdde03146102ef578063095ea7b31461033357806318160ddd1461036357600080fd5b3661029557600b5460405163f088d54760e01b81523360048201526001600160a01b039091169063f088d5479034906024016000604051808303818588803b15801561027f57600080fd5b505af1158015610293573d6000803e3d6000fd5b005b600080fd5b3480156102a657600080fd5b506102d36102b5366004611b5f565b60076020526000908152604090205460ff8082169161010090041682565b6040805192151583529015156020830152015b60405180910390f35b3480156102fb57600080fd5b5060408051808201909152601281527143727970746f205265616c2045737461746560701b60208201525b6040516102e69190611b7a565b34801561033f57600080fd5b5061035361034e366004611bcf565b610824565b60405190151581526020016102e6565b34801561036f57600080fd5b506001545b6040519081526020016102e6565b34801561038e57600080fd5b50610293610891565b3480156103a357600080fd5b506103536103b2366004611bf9565b61091c565b3480156103c357600080fd5b506102936103d2366004611b5f565b6109ee565b3480156103e357600080fd5b5061037460055481565b3480156103f957600080fd5b50600a5461040d906001600160a01b031681565b6040516001600160a01b0390911681526020016102e6565b34801561043157600080fd5b50604051601281526020016102e6565b34801561044d57600080fd5b5061029361045c366004611b5f565b610af7565b34801561046d57600080fd5b5061035361047c366004611c35565b610baf565b34801561048d57600080fd5b5061037460045481565b3480156104a357600080fd5b506102936104b2366004611b5f565b610bbb565b3480156104c357600080fd5b50600b5461035390600160b01b900460ff1681565b3480156104e457600080fd5b506102936104f3366004611b5f565b610c59565b34801561050457600080fd5b50610293610513366004611b5f565b610de0565b34801561052457600080fd5b50610293610533366004611b5f565b610eeb565b34801561054457600080fd5b50610374610553366004611b5f565b6001600160a01b031660009081526002602052604090205490565b34801561057a57600080fd5b50600b5461040d906001600160a01b031681565b34801561059a57600080fd5b506103536105a9366004611bcf565b610fa3565b3480156105ba57600080fd5b506000546001600160a01b031661040d565b3480156105d857600080fd5b506102936105e7366004611c5c565b611073565b3480156105f857600080fd5b5060085461040d906001600160a01b031681565b34801561061857600080fd5b5060408051808201909152600381526243524560e81b6020820152610326565b34801561064457600080fd5b5060095461040d906001600160a01b031681565b34801561066457600080fd5b50610293610673366004611b5f565b611126565b34801561068457600080fd5b50610353610693366004611bcf565b6111ab565b3480156106a457600080fd5b506102936106b3366004611b5f565b6111d9565b3480156106c457600080fd5b5061037460065481565b3480156106da57600080fd5b506102936106e9366004611c93565b611291565b3480156106fa57600080fd5b50610293610709366004611cbf565b6113e6565b34801561071a57600080fd5b5061072e610729366004611bf9565b61149a565b604080519384526001600160a01b0390921660208401521515908201526060016102e6565b34801561075f57600080fd5b5061037461076e366004611d0a565b6001600160a01b03918216600090815260036020908152604080832093909416825291909152205490565b3480156107a557600080fd5b506103536107b4366004611c35565b6115fa565b3480156107c557600080fd5b50600b5461035390600160a01b900460ff1681565b6102936107e8366004611b5f565b611606565b3480156107f957600080fd5b50600b5461035390600160a81b900460ff1681565b34801561081a57600080fd5b5061037461271081565b3360008181526003602090815260408083206001600160a01b038716808552925280832085905551919290917f8c5be1e5ebec7d5bd14f71427d1e84f3dd0314c0f7b2291e5b200ac8c7c3b9259061087f9086815260200190565b60405180910390a35060015b92915050565b6000546001600160a01b031633146108c45760405162461bcd60e51b81526004016108bb90611d3d565b60405180910390fd5b604051600090339047908381818185875af1925050503d8060008114610906576040519150601f19603f3d011682016040523d82523d6000602084013e61090b565b606091505b505090508061091957600080fd5b50565b6001600160a01b03831660009081526003602090815260408083203384529091528120548211156109885760405162461bcd60e51b8152602060048201526016602482015275496e73756666696369656e7420416c6c6f77616e636560501b60448201526064016108bb565b6001600160a01b03841660009081526003602090815260408083203384529091529020546109b7908390611d80565b6001600160a01b03851660009081526003602090815260408083203384529091529020556109e684848461166a565b949350505050565b6000546001600160a01b03163314610a185760405162461bcd60e51b81526004016108bb90611d3d565b6001600160a01b038116610a3e5760405162461bcd60e51b81526004016108bb90611d97565b6001600160a01b038116600090815260076020526040902054610100900460ff16610a985760405162461bcd60e51b815260206004820152600a6024820152694e6f7420416e20414d4d60b01b60448201526064016108bb565b6001600160a01b0381166000818152600760209081526040808320805461ff00191690558051938452908301919091527fc61655276240ba149963bf00ed68118036aceb86661c8530fc627aeb83d9d1f291015b60405180910390a150565b6000546001600160a01b03163314610b215760405162461bcd60e51b81526004016108bb90611d3d565b6001600160a01b038116610b475760405162461bcd60e51b81526004016108bb90611d97565b600980546001600160a01b0319166001600160a01b038316908117909155600081815260076020908152604091829020805460ff1916600117905590519182527fc1705819a90a4e9c9fba1872573191b370b8778cd644e0050b90c99b3c0762a99101610aec565b600061088b33836118f9565b6000546001600160a01b03163314610be55760405162461bcd60e51b81526004016108bb90611d3d565b6001600160a01b038116610c0b5760405162461bcd60e51b81526004016108bb90611d97565b600b80546001600160a01b0319166001600160a01b0383169081179091556040519081527fc555ba8f7e650432680ff1a720d80f55823f2bb203b9b8dce59252f651e3056d90602001610aec565b6000546001600160a01b03163314610c835760405162461bcd60e51b81526004016108bb90611d3d565b6001600160a01b038116610ca95760405162461bcd60e51b81526004016108bb90611d97565b6040516370a0823160e01b81523060048201526000906001600160a01b0383169063a9059cbb90339083906370a0823190602401602060405180830381865afa158015610cfa573d6000803e3d6000fd5b505050506040513d601f19601f82011682018060405250810190610d1e9190611dbd565b6040516001600160e01b031960e085901b1681526001600160a01b03909216600483015260248201526044016020604051808303816000875af1158015610d69573d6000803e3d6000fd5b505050506040513d601f19601f82011682018060405250810190610d8d9190611dd6565b905080610ddc5760405162461bcd60e51b815260206004820152601960248201527f4661696c757265204f6e20546f6b656e2057697468647261770000000000000060448201526064016108bb565b5050565b6000546001600160a01b03163314610e0a5760405162461bcd60e51b81526004016108bb90611d3d565b6001600160a01b038116610e305760405162461bcd60e51b81526004016108bb90611d97565b6001600160a01b038116600090815260076020526040902054610100900460ff1615610e8f5760405162461bcd60e51b815260206004820152600e60248201526d416c726561647920416e20414d4d60901b60448201526064016108bb565b6001600160a01b038116600081815260076020908152604091829020805461ff00191661010017905581519283526001908301527fc61655276240ba149963bf00ed68118036aceb86661c8530fc627aeb83d9d1f29101610aec565b6000546001600160a01b03163314610f155760405162461bcd60e51b81526004016108bb90611d3d565b6001600160a01b038116610f3b5760405162461bcd60e51b81526004016108bb90611d97565b600880546001600160a01b0319166001600160a01b038316908117909155600081815260076020908152604091829020805460ff1916600117905590519182527fffba9995ed8a822e426a175c6a29db4e239f0788c470ba2588c6bb3cc486a4499101610aec565b6001600160a01b038216600090815260036020908152604080832033845290915281205482111561100f5760405162461bcd60e51b8152602060048201526016602482015275496e73756666696369656e7420416c6c6f77616e636560501b60448201526064016108bb565b6001600160a01b038316600090815260036020908152604080832033845290915290205461103e908390611d80565b6001600160a01b038416600090815260036020908152604080832033845290915290205561106c83836118f9565b9392505050565b6000546001600160a01b0316331461109d5760405162461bcd60e51b81526004016108bb90611d3d565b6001600160a01b0382166110c35760405162461bcd60e51b81526004016108bb90611d97565b6001600160a01b038216600081815260076020908152604091829020805460ff19168515159081179091558251938452908301527f2293b760d6615c0f087e78599ce64d67197a7dba78cdd9e241f3cd23b46101f3910160405180910390a15050565b6000546001600160a01b031633146111505760405162461bcd60e51b81526004016108bb90611d3d565b600080546040516001600160a01b03808516939216917f342827c97908e5e2f71151c08502a66d44b6f758e3ac2f1de95f02eb95f0a73591a3600080546001600160a01b0319166001600160a01b0392909216919091179055565b6000336001600160a01b038416036111ce576111c733836119f3565b905061088b565b6111c733848461166a565b6000546001600160a01b031633146112035760405162461bcd60e51b81526004016108bb90611d3d565b6001600160a01b0381166112295760405162461bcd60e51b81526004016108bb90611d97565b600a80546001600160a01b0319166001600160a01b038316908117909155600081815260076020908152604091829020805460ff1916600117905590519182527f78dd3f4c755a9774505b9155386a8765af9250233430ebf8ad314a8a76e43c6b9101610aec565b6000546001600160a01b031633146112bb5760405162461bcd60e51b81526004016108bb90611d3d565b61012c8311156113005760405162461bcd60e51b815260206004820152601060248201526f084eaf2408ccaca40a8dede4090d2ced60831b60448201526064016108bb565b6103848211156113465760405162461bcd60e51b81526020600482015260116024820152700a6cad8d8408ccaca40a8dede4090d2ced607b1b60448201526064016108bb565b61012c8111156113905760405162461bcd60e51b81526020600482015260156024820152740a8e4c2dce6cccae4408ccaca40a8dede4090d2ced605b1b60448201526064016108bb565b60048390556005829055600681905560408051848152602081018490529081018290527f37322890d66d781059d797be5e2f27dc160a34d8bc0a8e09116cb9a773ce88ef906060015b60405180910390a1505050565b6000546001600160a01b031633146114105760405162461bcd60e51b81526004016108bb90611d3d565b600b805461ffff60a01b1916600160a01b85151590810260ff60a81b191691909117600160a81b8515159081029190911760ff60b01b1916600160b01b85151590810291909117909355604080519283526020830193909352918101919091527fc8a1056e1e07b03771ad22980885b6e9a4dd8ae54934b06eb0fd98e3649ddef9906060016113d9565b6001600160a01b0383166000908152600760205260408120548190819060ff16806114dd57506001600160a01b03851660009081526007602052604090205460ff165b156114f0575060009150819050806115f1565b6001600160a01b038616600090815260076020526040902054610100900460ff166115b2576001600160a01b038516600090815260076020526040902054610100900460ff16611576576127106006548561154b9190611df3565b6115559190611e12565b600a54600b546001600160a01b0390911690600160a81b900460ff166115ea565b612710600554856115879190611df3565b6115919190611e12565b600854600b546001600160a01b0390911690600160b01b900460ff166115ea565b612710600454856115c39190611df3565b6115cd9190611e12565b600954600b546001600160a01b0390911690600160a01b900460ff165b9250925092505b93509350939050565b600061088b33836119f3565b600b5460405163f088d54760e01b81526001600160a01b0383811660048301529091169063f088d5479034906024016000604051808303818588803b15801561164e57600080fd5b505af1158015611662573d6000803e3d6000fd5b505050505050565b60006001600160a01b0383166116b35760405162461bcd60e51b815260206004820152600e60248201526d16995c9bc8149958da5c1a595b9d60921b60448201526064016108bb565b600082116116d35760405162461bcd60e51b81526004016108bb90611e34565b6001600160a01b03841660009081526002602052604090205482111561170b5760405162461bcd60e51b81526004016108bb90611e59565b6001600160a01b03841660009081526002602052604090205461172f908390611d80565b6001600160a01b038516600090815260026020526040812091909155808061175887878761149a565b91945092509050821561186e5760006001600160a01b0383161580159061178857506001600160a01b0383163014155b90506000816117975730611799565b835b6001600160a01b0381166000908152600260205260408120805492935087929091906117c6908490611e87565b92505081905550806001600160a01b0316896001600160a01b0316600080516020611ea08339815191528760405161180091815260200190565b60405180910390a38280156118125750815b1561186b57806001600160a01b0316637fec8d386040518163ffffffff1660e01b8152600401600060405180830381600087803b15801561185257600080fd5b505af1158015611866573d6000803e3d6000fd5b505050505b50505b600061187a8487611d80565b6001600160a01b0388166000908152600260205260409020549091506118a1908290611e87565b6001600160a01b0380891660008181526002602052604090819020939093559151908a1690600080516020611ea0833981519152906118e39085815260200190565b60405180910390a3506001979650505050505050565b60006001600160a01b0383166119215760405162461bcd60e51b81526004016108bb90611d97565b600082116119415760405162461bcd60e51b81526004016108bb90611e34565b6001600160a01b0383166000908152600260205260409020548211156119795760405162461bcd60e51b81526004016108bb90611e59565b6001600160a01b03831660009081526002602052604090205461199d908390611d80565b6001600160a01b0384166000908152600260205260409020556001546119c4908390611d80565b6001556040518281526000906001600160a01b03851690600080516020611ea08339815191529060200161087f565b6000808211611a145760405162461bcd60e51b81526004016108bb90611e34565b6001600160a01b038316600090815260026020526040902054821115611a4c5760405162461bcd60e51b81526004016108bb90611e59565b6001600160a01b03831660009081526002602052604081208054849290611a74908490611d80565b9091555050600b546001600160a01b031660009081526002602052604081208054849290611aa3908490611e87565b9091555050600b546040518381526001600160a01b0391821691851690600080516020611ea08339815191529060200160405180910390a3600b5460405163252dbe7560e21b81526001600160a01b038581166004830152909116906394b6f9d490602401600060405180830381600087803b158015611b2257600080fd5b505af1158015611b36573d6000803e3d6000fd5b5060019695505050505050565b80356001600160a01b0381168114611b5a57600080fd5b919050565b600060208284031215611b7157600080fd5b61106c82611b43565b600060208083528351808285015260005b81811015611ba757858101830151858201604001528201611b8b565b81811115611bb9576000604083870101525b50601f01601f1916929092016040019392505050565b60008060408385031215611be257600080fd5b611beb83611b43565b946020939093013593505050565b600080600060608486031215611c0e57600080fd5b611c1784611b43565b9250611c2560208501611b43565b9150604084013590509250925092565b600060208284031215611c4757600080fd5b5035919050565b801515811461091957600080fd5b60008060408385031215611c6f57600080fd5b611c7883611b43565b91506020830135611c8881611c4e565b809150509250929050565b600080600060608486031215611ca857600080fd5b505081359360208301359350604090920135919050565b600080600060608486031215611cd457600080fd5b8335611cdf81611c4e565b92506020840135611cef81611c4e565b91506040840135611cff81611c4e565b809150509250925092565b60008060408385031215611d1d57600080fd5b611d2683611b43565b9150611d3460208401611b43565b90509250929050565b60208082526013908201527221b0b63632b91034b9903737ba1037bbb732b960691b604082015260600190565b634e487b7160e01b600052601160045260246000fd5b600082821015611d9257611d92611d6a565b500390565b6020808252600c908201526b5a65726f204164647265737360a01b604082015260600190565b600060208284031215611dcf57600080fd5b5051919050565b600060208284031215611de857600080fd5b815161106c81611c4e565b6000816000190483118215151615611e0d57611e0d611d6a565b500290565b600082611e2f57634e487b7160e01b600052601260045260246000fd5b500490565b6020808252600b908201526a16995c9bc8105b5bdd5b9d60aa1b604082015260600190565b602080825260149082015273496e73756666696369656e742042616c616e636560601b604082015260600190565b60008219821115611e9a57611e9a611d6a565b50019056feddf252ad1be2c89b69c2b068fc378daa952ba7f163c4a11628f55a4df523b3efa264697066735822122008a62ac9cef69992b404679060dc511f616cdaea26a9a5c534f0f4bf59d7fe6064736f6c634300080e0033",
  "linkReferences": {},
  "deployedLinkReferences": {}
}